{
	"contracts/MarketEventFetcher.sol": {
		"MarketEventFetcher": {
			"abi": [
				{
					"inputs": [],
					"stateMutability": "nonpayable",
					"type": "constructor"
				},
				{
					"anonymous": false,
					"inputs": [
						{
							"indexed": true,
							"internalType": "uint256",
							"name": "eventId",
							"type": "uint256"
						},
						{
							"indexed": false,
							"internalType": "string",
							"name": "description",
							"type": "string"
						}
					],
					"name": "MarketEventFetched",
					"type": "event"
				},
				{
					"inputs": [],
					"name": "fetchMarketEvents",
					"outputs": [],
					"stateMutability": "nonpayable",
					"type": "function"
				},
				{
					"inputs": [],
					"name": "owner",
					"outputs": [
						{
							"internalType": "address",
							"name": "",
							"type": "address"
						}
					],
					"stateMutability": "view",
					"type": "function"
				}
			],
			"devdoc": {
				"details": "Contract to fetch and filter market events.",
				"kind": "dev",
				"methods": {},
				"title": "MarketEventFetcher",
				"version": 1
			},
			"evm": {
				"assembly": "    /* \"contracts/MarketEventFetcher.sol\":147:682  contract MarketEventFetcher {... */\n  mstore(0x40, 0x80)\n    /* \"contracts/MarketEventFetcher.sol\":394:443  constructor() {... */\n  callvalue\n  dup1\n  iszero\n  tag_1\n  jumpi\n  0x00\n  dup1\n  revert\ntag_1:\n  pop\n    /* \"contracts/MarketEventFetcher.sol\":426:436  msg.sender */\n  caller\n    /* \"contracts/MarketEventFetcher.sol\":418:423  owner */\n  0x00\n  dup1\n    /* \"contracts/MarketEventFetcher.sol\":418:436  owner = msg.sender */\n  0x0100\n  exp\n  dup2\n  sload\n  dup2\n  0xffffffffffffffffffffffffffffffffffffffff\n  mul\n  not\n  and\n  swap1\n  dup4\n  0xffffffffffffffffffffffffffffffffffffffff\n  and\n  mul\n  or\n  swap1\n  sstore\n  pop\n    /* \"contracts/MarketEventFetcher.sol\":147:682  contract MarketEventFetcher {... */\n  dataSize(sub_0)\n  dup1\n  dataOffset(sub_0)\n  0x00\n  codecopy\n  0x00\n  return\nstop\n\nsub_0: assembly {\n        /* \"contracts/MarketEventFetcher.sol\":147:682  contract MarketEventFetcher {... */\n      mstore(0x40, 0x80)\n      callvalue\n      dup1\n      iszero\n      tag_1\n      jumpi\n      0x00\n      dup1\n      revert\n    tag_1:\n      pop\n      jumpi(tag_2, lt(calldatasize, 0x04))\n      shr(0xe0, calldataload(0x00))\n      dup1\n      0x8da5cb5b\n      eq\n      tag_3\n      jumpi\n      dup1\n      0xaef447a8\n      eq\n      tag_4\n      jumpi\n    tag_2:\n      0x00\n      dup1\n      revert\n        /* \"contracts/MarketEventFetcher.sol\":181:201  address public owner */\n    tag_3:\n      tag_5\n      tag_6\n      jump\t// in\n    tag_5:\n      mload(0x40)\n      tag_7\n      swap2\n      swap1\n      tag_8\n      jump\t// in\n    tag_7:\n      mload(0x40)\n      dup1\n      swap2\n      sub\n      swap1\n      return\n        /* \"contracts/MarketEventFetcher.sol\":530:680  function fetchMarketEvents() external onlyOwner {... */\n    tag_4:\n      tag_9\n      tag_10\n      jump\t// in\n    tag_9:\n      stop\n        /* \"contracts/MarketEventFetcher.sol\":181:201  address public owner */\n    tag_6:\n      0x00\n      dup1\n      sload\n      swap1\n      0x0100\n      exp\n      swap1\n      div\n      0xffffffffffffffffffffffffffffffffffffffff\n      and\n      dup2\n      jump\t// out\n        /* \"contracts/MarketEventFetcher.sol\":530:680  function fetchMarketEvents() external onlyOwner {... */\n    tag_10:\n        /* \"contracts/MarketEventFetcher.sol\":337:342  owner */\n      0x00\n      dup1\n      sload\n      swap1\n      0x0100\n      exp\n      swap1\n      div\n      0xffffffffffffffffffffffffffffffffffffffff\n      and\n        /* \"contracts/MarketEventFetcher.sol\":323:342  msg.sender == owner */\n      0xffffffffffffffffffffffffffffffffffffffff\n      and\n        /* \"contracts/MarketEventFetcher.sol\":323:333  msg.sender */\n      caller\n        /* \"contracts/MarketEventFetcher.sol\":323:342  msg.sender == owner */\n      0xffffffffffffffffffffffffffffffffffffffff\n      and\n      eq\n        /* \"contracts/MarketEventFetcher.sol\":315:370  require(msg.sender == owner, \"Caller is not the owner\") */\n      tag_12\n      jumpi\n      mload(0x40)\n      0x08c379a000000000000000000000000000000000000000000000000000000000\n      dup2\n      mstore\n      0x04\n      add\n      tag_13\n      swap1\n      tag_14\n      jump\t// in\n    tag_13:\n      mload(0x40)\n      dup1\n      swap2\n      sub\n      swap1\n      revert\n    tag_12:\n        /* \"contracts/MarketEventFetcher.sol\":642:643  1 */\n      0x01\n        /* \"contracts/MarketEventFetcher.sol\":623:673  MarketEventFetched(1, \"Example Event Description\") */\n      0x06806f006a29d5355ba82bc27a96888491c2a55bd3a2619565a9dd793c3c0032\n      mload(0x40)\n      tag_16\n      swap1\n      tag_17\n      jump\t// in\n    tag_16:\n      mload(0x40)\n      dup1\n      swap2\n      sub\n      swap1\n      log2\n        /* \"contracts/MarketEventFetcher.sol\":530:680  function fetchMarketEvents() external onlyOwner {... */\n      jump\t// out\n        /* \"#utility.yul\":7:133   */\n    tag_18:\n        /* \"#utility.yul\":44:51   */\n      0x00\n        /* \"#utility.yul\":84:126   */\n      0xffffffffffffffffffffffffffffffffffffffff\n        /* \"#utility.yul\":77:82   */\n      dup3\n        /* \"#utility.yul\":73:127   */\n      and\n        /* \"#utility.yul\":62:127   */\n      swap1\n      pop\n        /* \"#utility.yul\":7:133   */\n      swap2\n      swap1\n      pop\n      jump\t// out\n        /* \"#utility.yul\":139:235   */\n    tag_19:\n        /* \"#utility.yul\":176:183   */\n      0x00\n        /* \"#utility.yul\":205:229   */\n      tag_29\n        /* \"#utility.yul\":223:228   */\n      dup3\n        /* \"#utility.yul\":205:229   */\n      tag_18\n      jump\t// in\n    tag_29:\n        /* \"#utility.yul\":194:229   */\n      swap1\n      pop\n        /* \"#utility.yul\":139:235   */\n      swap2\n      swap1\n      pop\n      jump\t// out\n        /* \"#utility.yul\":241:359   */\n    tag_20:\n        /* \"#utility.yul\":328:352   */\n      tag_31\n        /* \"#utility.yul\":346:351   */\n      dup2\n        /* \"#utility.yul\":328:352   */\n      tag_19\n      jump\t// in\n    tag_31:\n        /* \"#utility.yul\":323:326   */\n      dup3\n        /* \"#utility.yul\":316:353   */\n      mstore\n        /* \"#utility.yul\":241:359   */\n      pop\n      pop\n      jump\t// out\n        /* \"#utility.yul\":365:587   */\n    tag_8:\n        /* \"#utility.yul\":458:462   */\n      0x00\n        /* \"#utility.yul\":496:498   */\n      0x20\n        /* \"#utility.yul\":485:494   */\n      dup3\n        /* \"#utility.yul\":481:499   */\n      add\n        /* \"#utility.yul\":473:499   */\n      swap1\n      pop\n        /* \"#utility.yul\":509:580   */\n      tag_33\n        /* \"#utility.yul\":577:578   */\n      0x00\n        /* \"#utility.yul\":566:575   */\n      dup4\n        /* \"#utility.yul\":562:579   */\n      add\n        /* \"#utility.yul\":553:559   */\n      dup5\n        /* \"#utility.yul\":509:580   */\n      tag_20\n      jump\t// in\n    tag_33:\n        /* \"#utility.yul\":365:587   */\n      swap3\n      swap2\n      pop\n      pop\n      jump\t// out\n        /* \"#utility.yul\":593:762   */\n    tag_21:\n        /* \"#utility.yul\":677:688   */\n      0x00\n        /* \"#utility.yul\":711:717   */\n      dup3\n        /* \"#utility.yul\":706:709   */\n      dup3\n        /* \"#utility.yul\":699:718   */\n      mstore\n        /* \"#utility.yul\":751:755   */\n      0x20\n        /* \"#utility.yul\":746:749   */\n      dup3\n        /* \"#utility.yul\":742:756   */\n      add\n        /* \"#utility.yul\":727:756   */\n      swap1\n      pop\n        /* \"#utility.yul\":593:762   */\n      swap3\n      swap2\n      pop\n      pop\n      jump\t// out\n        /* \"#utility.yul\":768:941   */\n    tag_22:\n        /* \"#utility.yul\":908:933   */\n      0x43616c6c6572206973206e6f7420746865206f776e6572000000000000000000\n        /* \"#utility.yul\":904:905   */\n      0x00\n        /* \"#utility.yul\":896:902   */\n      dup3\n        /* \"#utility.yul\":892:906   */\n      add\n        /* \"#utility.yul\":885:934   */\n      mstore\n        /* \"#utility.yul\":768:941   */\n      pop\n      jump\t// out\n        /* \"#utility.yul\":947:1313   */\n    tag_23:\n        /* \"#utility.yul\":1089:1092   */\n      0x00\n        /* \"#utility.yul\":1110:1177   */\n      tag_37\n        /* \"#utility.yul\":1174:1176   */\n      0x17\n        /* \"#utility.yul\":1169:1172   */\n      dup4\n        /* \"#utility.yul\":1110:1177   */\n      tag_21\n      jump\t// in\n    tag_37:\n        /* \"#utility.yul\":1103:1177   */\n      swap2\n      pop\n        /* \"#utility.yul\":1186:1279   */\n      tag_38\n        /* \"#utility.yul\":1275:1278   */\n      dup3\n        /* \"#utility.yul\":1186:1279   */\n      tag_22\n      jump\t// in\n    tag_38:\n        /* \"#utility.yul\":1304:1306   */\n      0x20\n        /* \"#utility.yul\":1299:1302   */\n      dup3\n        /* \"#utility.yul\":1295:1307   */\n      add\n        /* \"#utility.yul\":1288:1307   */\n      swap1\n      pop\n        /* \"#utility.yul\":947:1313   */\n      swap2\n      swap1\n      pop\n      jump\t// out\n        /* \"#utility.yul\":1319:1738   */\n    tag_14:\n        /* \"#utility.yul\":1485:1489   */\n      0x00\n        /* \"#utility.yul\":1523:1525   */\n      0x20\n        /* \"#utility.yul\":1512:1521   */\n      dup3\n        /* \"#utility.yul\":1508:1526   */\n      add\n        /* \"#utility.yul\":1500:1526   */\n      swap1\n      pop\n        /* \"#utility.yul\":1572:1581   */\n      dup2\n        /* \"#utility.yul\":1566:1570   */\n      dup2\n        /* \"#utility.yul\":1562:1582   */\n      sub\n        /* \"#utility.yul\":1558:1559   */\n      0x00\n        /* \"#utility.yul\":1547:1556   */\n      dup4\n        /* \"#utility.yul\":1543:1560   */\n      add\n        /* \"#utility.yul\":1536:1583   */\n      mstore\n        /* \"#utility.yul\":1600:1731   */\n      tag_40\n        /* \"#utility.yul\":1726:1730   */\n      dup2\n        /* \"#utility.yul\":1600:1731   */\n      tag_23\n      jump\t// in\n    tag_40:\n        /* \"#utility.yul\":1592:1731   */\n      swap1\n      pop\n        /* \"#utility.yul\":1319:1738   */\n      swap2\n      swap1\n      pop\n      jump\t// out\n        /* \"#utility.yul\":1744:1919   */\n    tag_24:\n        /* \"#utility.yul\":1884:1911   */\n      0x4578616d706c65204576656e74204465736372697074696f6e00000000000000\n        /* \"#utility.yul\":1880:1881   */\n      0x00\n        /* \"#utility.yul\":1872:1878   */\n      dup3\n        /* \"#utility.yul\":1868:1882   */\n      add\n        /* \"#utility.yul\":1861:1912   */\n      mstore\n        /* \"#utility.yul\":1744:1919   */\n      pop\n      jump\t// out\n        /* \"#utility.yul\":1925:2291   */\n    tag_25:\n        /* \"#utility.yul\":2067:2070   */\n      0x00\n        /* \"#utility.yul\":2088:2155   */\n      tag_43\n        /* \"#utility.yul\":2152:2154   */\n      0x19\n        /* \"#utility.yul\":2147:2150   */\n      dup4\n        /* \"#utility.yul\":2088:2155   */\n      tag_21\n      jump\t// in\n    tag_43:\n        /* \"#utility.yul\":2081:2155   */\n      swap2\n      pop\n        /* \"#utility.yul\":2164:2257   */\n      tag_44\n        /* \"#utility.yul\":2253:2256   */\n      dup3\n        /* \"#utility.yul\":2164:2257   */\n      tag_24\n      jump\t// in\n    tag_44:\n        /* \"#utility.yul\":2282:2284   */\n      0x20\n        /* \"#utility.yul\":2277:2280   */\n      dup3\n        /* \"#utility.yul\":2273:2285   */\n      add\n        /* \"#utility.yul\":2266:2285   */\n      swap1\n      pop\n        /* \"#utility.yul\":1925:2291   */\n      swap2\n      swap1\n      pop\n      jump\t// out\n        /* \"#utility.yul\":2297:2716   */\n    tag_17:\n        /* \"#utility.yul\":2463:2467   */\n      0x00\n        /* \"#utility.yul\":2501:2503   */\n      0x20\n        /* \"#utility.yul\":2490:2499   */\n      dup3\n        /* \"#utility.yul\":2486:2504   */\n      add\n        /* \"#utility.yul\":2478:2504   */\n      swap1\n      pop\n        /* \"#utility.yul\":2550:2559   */\n      dup2\n        /* \"#utility.yul\":2544:2548   */\n      dup2\n        /* \"#utility.yul\":2540:2560   */\n      sub\n        /* \"#utility.yul\":2536:2537   */\n      0x00\n        /* \"#utility.yul\":2525:2534   */\n      dup4\n        /* \"#utility.yul\":2521:2538   */\n      add\n        /* \"#utility.yul\":2514:2561   */\n      mstore\n        /* \"#utility.yul\":2578:2709   */\n      tag_46\n        /* \"#utility.yul\":2704:2708   */\n      dup2\n        /* \"#utility.yul\":2578:2709   */\n      tag_25\n      jump\t// in\n    tag_46:\n        /* \"#utility.yul\":2570:2709   */\n      swap1\n      pop\n        /* \"#utility.yul\":2297:2716   */\n      swap2\n      swap1\n      pop\n      jump\t// out\n\n    auxdata: 0xa264697066735822122018be8cacb4b6797b7e6474a28c8ce25b611a046ddb49437d91c1126ba097908164736f6c634300081a0033\n}\n",
				"bytecode": {
					"linkReferences": {},
					"object": "6080604052348015600e575f80fd5b50335f806101000a81548173ffffffffffffffffffffffffffffffffffffffff021916908373ffffffffffffffffffffffffffffffffffffffff1602179055506102b78061005b5f395ff3fe608060405234801561000f575f80fd5b5060043610610034575f3560e01c80638da5cb5b14610038578063aef447a814610056575b5f80fd5b610040610060565b60405161004d9190610188565b60405180910390f35b61005e610083565b005b5f8054906101000a900473ffffffffffffffffffffffffffffffffffffffff1681565b5f8054906101000a900473ffffffffffffffffffffffffffffffffffffffff1673ffffffffffffffffffffffffffffffffffffffff163373ffffffffffffffffffffffffffffffffffffffff1614610110576040517f08c379a0000000000000000000000000000000000000000000000000000000008152600401610107906101fb565b60405180910390fd5b60017f06806f006a29d5355ba82bc27a96888491c2a55bd3a2619565a9dd793c3c003260405161013f90610263565b60405180910390a2565b5f73ffffffffffffffffffffffffffffffffffffffff82169050919050565b5f61017282610149565b9050919050565b61018281610168565b82525050565b5f60208201905061019b5f830184610179565b92915050565b5f82825260208201905092915050565b7f43616c6c6572206973206e6f7420746865206f776e65720000000000000000005f82015250565b5f6101e56017836101a1565b91506101f0826101b1565b602082019050919050565b5f6020820190508181035f830152610212816101d9565b9050919050565b7f4578616d706c65204576656e74204465736372697074696f6e000000000000005f82015250565b5f61024d6019836101a1565b915061025882610219565b602082019050919050565b5f6020820190508181035f83015261027a81610241565b905091905056fea264697066735822122018be8cacb4b6797b7e6474a28c8ce25b611a046ddb49437d91c1126ba097908164736f6c634300081a0033",
					"opcodes": "PUSH1 0x80 PUSH1 0x40 MSTORE CALLVALUE DUP1 ISZERO PUSH1 0xE JUMPI PUSH0 DUP1 REVERT JUMPDEST POP CALLER PUSH0 DUP1 PUSH2 0x100 EXP DUP2 SLOAD DUP2 PUSH20 0xFFFFFFFFFFFFFFFFFFFFFFFFFFFFFFFFFFFFFFFF MUL NOT AND SWAP1 DUP4 PUSH20 0xFFFFFFFFFFFFFFFFFFFFFFFFFFFFFFFFFFFFFFFF AND MUL OR SWAP1 SSTORE POP PUSH2 0x2B7 DUP1 PUSH2 0x5B PUSH0 CODECOPY PUSH0 RETURN INVALID PUSH1 0x80 PUSH1 0x40 MSTORE CALLVALUE DUP1 ISZERO PUSH2 0xF JUMPI PUSH0 DUP1 REVERT JUMPDEST POP PUSH1 0x4 CALLDATASIZE LT PUSH2 0x34 JUMPI PUSH0 CALLDATALOAD PUSH1 0xE0 SHR DUP1 PUSH4 0x8DA5CB5B EQ PUSH2 0x38 JUMPI DUP1 PUSH4 0xAEF447A8 EQ PUSH2 0x56 JUMPI JUMPDEST PUSH0 DUP1 REVERT JUMPDEST PUSH2 0x40 PUSH2 0x60 JUMP JUMPDEST PUSH1 0x40 MLOAD PUSH2 0x4D SWAP2 SWAP1 PUSH2 0x188 JUMP JUMPDEST PUSH1 0x40 MLOAD DUP1 SWAP2 SUB SWAP1 RETURN JUMPDEST PUSH2 0x5E PUSH2 0x83 JUMP JUMPDEST STOP JUMPDEST PUSH0 DUP1 SLOAD SWAP1 PUSH2 0x100 EXP SWAP1 DIV PUSH20 0xFFFFFFFFFFFFFFFFFFFFFFFFFFFFFFFFFFFFFFFF AND DUP2 JUMP JUMPDEST PUSH0 DUP1 SLOAD SWAP1 PUSH2 0x100 EXP SWAP1 DIV PUSH20 0xFFFFFFFFFFFFFFFFFFFFFFFFFFFFFFFFFFFFFFFF AND PUSH20 0xFFFFFFFFFFFFFFFFFFFFFFFFFFFFFFFFFFFFFFFF AND CALLER PUSH20 0xFFFFFFFFFFFFFFFFFFFFFFFFFFFFFFFFFFFFFFFF AND EQ PUSH2 0x110 JUMPI PUSH1 0x40 MLOAD PUSH32 0x8C379A000000000000000000000000000000000000000000000000000000000 DUP2 MSTORE PUSH1 0x4 ADD PUSH2 0x107 SWAP1 PUSH2 0x1FB JUMP JUMPDEST PUSH1 0x40 MLOAD DUP1 SWAP2 SUB SWAP1 REVERT JUMPDEST PUSH1 0x1 PUSH32 0x6806F006A29D5355BA82BC27A96888491C2A55BD3A2619565A9DD793C3C0032 PUSH1 0x40 MLOAD PUSH2 0x13F SWAP1 PUSH2 0x263 JUMP JUMPDEST PUSH1 0x40 MLOAD DUP1 SWAP2 SUB SWAP1 LOG2 JUMP JUMPDEST PUSH0 PUSH20 0xFFFFFFFFFFFFFFFFFFFFFFFFFFFFFFFFFFFFFFFF DUP3 AND SWAP1 POP SWAP2 SWAP1 POP JUMP JUMPDEST PUSH0 PUSH2 0x172 DUP3 PUSH2 0x149 JUMP JUMPDEST SWAP1 POP SWAP2 SWAP1 POP JUMP JUMPDEST PUSH2 0x182 DUP2 PUSH2 0x168 JUMP JUMPDEST DUP3 MSTORE POP POP JUMP JUMPDEST PUSH0 PUSH1 0x20 DUP3 ADD SWAP1 POP PUSH2 0x19B PUSH0 DUP4 ADD DUP5 PUSH2 0x179 JUMP JUMPDEST SWAP3 SWAP2 POP POP JUMP JUMPDEST PUSH0 DUP3 DUP3 MSTORE PUSH1 0x20 DUP3 ADD SWAP1 POP SWAP3 SWAP2 POP POP JUMP JUMPDEST PUSH32 0x43616C6C6572206973206E6F7420746865206F776E6572000000000000000000 PUSH0 DUP3 ADD MSTORE POP JUMP JUMPDEST PUSH0 PUSH2 0x1E5 PUSH1 0x17 DUP4 PUSH2 0x1A1 JUMP JUMPDEST SWAP2 POP PUSH2 0x1F0 DUP3 PUSH2 0x1B1 JUMP JUMPDEST PUSH1 0x20 DUP3 ADD SWAP1 POP SWAP2 SWAP1 POP JUMP JUMPDEST PUSH0 PUSH1 0x20 DUP3 ADD SWAP1 POP DUP2 DUP2 SUB PUSH0 DUP4 ADD MSTORE PUSH2 0x212 DUP2 PUSH2 0x1D9 JUMP JUMPDEST SWAP1 POP SWAP2 SWAP1 POP JUMP JUMPDEST PUSH32 0x4578616D706C65204576656E74204465736372697074696F6E00000000000000 PUSH0 DUP3 ADD MSTORE POP JUMP JUMPDEST PUSH0 PUSH2 0x24D PUSH1 0x19 DUP4 PUSH2 0x1A1 JUMP JUMPDEST SWAP2 POP PUSH2 0x258 DUP3 PUSH2 0x219 JUMP JUMPDEST PUSH1 0x20 DUP3 ADD SWAP1 POP SWAP2 SWAP1 POP JUMP JUMPDEST PUSH0 PUSH1 0x20 DUP3 ADD SWAP1 POP DUP2 DUP2 SUB PUSH0 DUP4 ADD MSTORE PUSH2 0x27A DUP2 PUSH2 0x241 JUMP JUMPDEST SWAP1 POP SWAP2 SWAP1 POP JUMP INVALID LOG2 PUSH5 0x6970667358 0x22 SLT KECCAK256 XOR 0xBE DUP13 0xAC 0xB4 0xB6 PUSH26 0x7B7E6474A28C8CE25B611A046DDB49437D91C1126BA097908164 PUSH20 0x6F6C634300081A00330000000000000000000000 "
				},
				"gasEstimates": {
					"creation": {
						"codeDepositCost": "139000",
						"executionCost": "24446",
						"totalCost": "163446"
					},
					"external": {
						"fetchMarketEvents()": "2593",
						"owner()": "2483"
					}
				},
				"methodIdentifiers": {
					"fetchMarketEvents()": "aef447a8",
					"owner()": "8da5cb5b"
				}
			},
			"storageLayout": {
				"storage": [
					{
						"astId": 4,
						"contract": "contracts/MarketEventFetcher.sol:MarketEventFetcher",
						"label": "owner",
						"offset": 0,
						"slot": "0",
						"type": "t_address"
					}
				],
				"types": {
					"t_address": {
						"encoding": "inplace",
						"label": "address",
						"numberOfBytes": "20"
					}
				}
			},
			"userdoc": {
				"kind": "user",
				"methods": {
					"fetchMarketEvents()": {
						"notice": "Fetches market events from the prediction market."
					}
				},
				"version": 1
			}
		}
	}
}